{
  "_format": "hh-sol-artifact-1",
  "contractName": "StakingContract",
  "sourceName": "contracts/StakingContract.sol",
  "abi": [
    {
      "inputs": [],
      "stateMutability": "nonpayable",
      "type": "constructor"
    },
    {
      "anonymous": false,
      "inputs": [
        {
          "indexed": true,
          "internalType": "address",
          "name": "owner",
          "type": "address"
        },
        {
          "indexed": true,
          "internalType": "address",
          "name": "spender",
          "type": "address"
        },
        {
          "indexed": false,
          "internalType": "uint256",
          "name": "value",
          "type": "uint256"
        }
      ],
      "name": "Approval",
      "type": "event"
    },
    {
      "anonymous": false,
      "inputs": [
        {
          "indexed": true,
          "internalType": "address",
          "name": "from",
          "type": "address"
        },
        {
          "indexed": true,
          "internalType": "address",
          "name": "to",
          "type": "address"
        },
        {
          "indexed": false,
          "internalType": "uint256",
          "name": "value",
          "type": "uint256"
        }
      ],
      "name": "Transfer",
      "type": "event"
    },
    {
      "inputs": [
        {
          "internalType": "address",
          "name": "",
          "type": "address"
        },
        {
          "internalType": "address",
          "name": "",
          "type": "address"
        }
      ],
      "name": "allowance",
      "outputs": [
        {
          "internalType": "uint256",
          "name": "",
          "type": "uint256"
        }
      ],
      "stateMutability": "view",
      "type": "function"
    },
    {
      "inputs": [
        {
          "internalType": "address",
          "name": "spender",
          "type": "address"
        },
        {
          "internalType": "uint256",
          "name": "value",
          "type": "uint256"
        }
      ],
      "name": "approve",
      "outputs": [
        {
          "internalType": "bool",
          "name": "",
          "type": "bool"
        }
      ],
      "stateMutability": "nonpayable",
      "type": "function"
    },
    {
      "inputs": [
        {
          "internalType": "address",
          "name": "addr",
          "type": "address"
        }
      ],
      "name": "balance",
      "outputs": [
        {
          "internalType": "uint256",
          "name": "",
          "type": "uint256"
        }
      ],
      "stateMutability": "view",
      "type": "function"
    },
    {
      "inputs": [
        {
          "internalType": "address",
          "name": "",
          "type": "address"
        }
      ],
      "name": "balanceOf",
      "outputs": [
        {
          "internalType": "uint256",
          "name": "",
          "type": "uint256"
        }
      ],
      "stateMutability": "view",
      "type": "function"
    },
    {
      "inputs": [],
      "name": "blockNumber",
      "outputs": [
        {
          "internalType": "uint256",
          "name": "",
          "type": "uint256"
        }
      ],
      "stateMutability": "view",
      "type": "function"
    },
    {
      "inputs": [],
      "name": "blocksPerReward",
      "outputs": [
        {
          "internalType": "uint256",
          "name": "",
          "type": "uint256"
        }
      ],
      "stateMutability": "view",
      "type": "function"
    },
    {
      "inputs": [
        {
          "internalType": "address",
          "name": "addr",
          "type": "address"
        }
      ],
      "name": "calculateRewards",
      "outputs": [
        {
          "internalType": "uint256",
          "name": "",
          "type": "uint256"
        }
      ],
      "stateMutability": "view",
      "type": "function"
    },
    {
      "inputs": [],
      "name": "claimRewards",
      "outputs": [],
      "stateMutability": "nonpayable",
      "type": "function"
    },
    {
      "inputs": [],
      "name": "compoundInterestRate",
      "outputs": [
        {
          "internalType": "uint256",
          "name": "",
          "type": "uint256"
        }
      ],
      "stateMutability": "view",
      "type": "function"
    },
    {
      "inputs": [],
      "name": "decimals",
      "outputs": [
        {
          "internalType": "uint8",
          "name": "",
          "type": "uint8"
        }
      ],
      "stateMutability": "view",
      "type": "function"
    },
    {
      "inputs": [],
      "name": "name",
      "outputs": [
        {
          "internalType": "string",
          "name": "",
          "type": "string"
        }
      ],
      "stateMutability": "view",
      "type": "function"
    },
    {
      "inputs": [
        {
          "internalType": "uint256",
          "name": "_amount",
          "type": "uint256"
        }
      ],
      "name": "stakeTokens",
      "outputs": [],
      "stateMutability": "nonpayable",
      "type": "function"
    },
    {
      "inputs": [
        {
          "internalType": "address",
          "name": "",
          "type": "address"
        }
      ],
      "name": "stakers",
      "outputs": [
        {
          "internalType": "uint256",
          "name": "stakedBalance",
          "type": "uint256"
        },
        {
          "internalType": "uint256",
          "name": "lastBlockStaked",
          "type": "uint256"
        },
        {
          "internalType": "uint256",
          "name": "cumulativeRewards",
          "type": "uint256"
        }
      ],
      "stateMutability": "view",
      "type": "function"
    },
    {
      "inputs": [],
      "name": "symbol",
      "outputs": [
        {
          "internalType": "string",
          "name": "",
          "type": "string"
        }
      ],
      "stateMutability": "view",
      "type": "function"
    },
    {
      "inputs": [],
      "name": "totalSupply",
      "outputs": [
        {
          "internalType": "uint256",
          "name": "",
          "type": "uint256"
        }
      ],
      "stateMutability": "view",
      "type": "function"
    },
    {
      "inputs": [
        {
          "internalType": "address",
          "name": "to",
          "type": "address"
        },
        {
          "internalType": "uint256",
          "name": "value",
          "type": "uint256"
        }
      ],
      "name": "transfer",
      "outputs": [
        {
          "internalType": "bool",
          "name": "",
          "type": "bool"
        }
      ],
      "stateMutability": "nonpayable",
      "type": "function"
    },
    {
      "inputs": [
        {
          "internalType": "address",
          "name": "from",
          "type": "address"
        },
        {
          "internalType": "address",
          "name": "to",
          "type": "address"
        },
        {
          "internalType": "uint256",
          "name": "value",
          "type": "uint256"
        }
      ],
      "name": "transferFrom",
      "outputs": [
        {
          "internalType": "bool",
          "name": "",
          "type": "bool"
        }
      ],
      "stateMutability": "nonpayable",
      "type": "function"
    },
    {
      "inputs": [
        {
          "internalType": "address",
          "name": "addr",
          "type": "address"
        }
      ],
      "name": "viewStakeDetails",
      "outputs": [
        {
          "components": [
            {
              "internalType": "uint256",
              "name": "stakedBalance",
              "type": "uint256"
            },
            {
              "internalType": "uint256",
              "name": "lastBlockStaked",
              "type": "uint256"
            },
            {
              "internalType": "uint256",
              "name": "cumulativeRewards",
              "type": "uint256"
            }
          ],
          "internalType": "struct StakingContract.Staker",
          "name": "",
          "type": "tuple"
        }
      ],
      "stateMutability": "view",
      "type": "function"
    },
    {
      "inputs": [],
      "name": "withdrawStake",
      "outputs": [],
      "stateMutability": "nonpayable",
      "type": "function"
    }
  ],
  "bytecode": "0x60806040526040518060400160405280600d81526020017f5374616b696e6720546f6b656e00000000000000000000000000000000000000815250600090805190602001906200005192919062000155565b506040518060400160405280600381526020017f5354540000000000000000000000000000000000000000000000000000000000815250600190805190602001906200009f92919062000155565b506008600260006101000a81548160ff021916908360ff160217905550600260009054906101000a900460ff1660ff16600a620000dd919062000260565b631dcd6500620000ee91906200039d565b6003556002600755600a6008553480156200010857600080fd5b50600354600460003373ffffffffffffffffffffffffffffffffffffffff1673ffffffffffffffffffffffffffffffffffffffff16815260200190815260200160002081905550620004a9565b828054620001639062000408565b90600052602060002090601f016020900481019282620001875760008555620001d3565b82601f10620001a257805160ff1916838001178555620001d3565b82800160010185558215620001d3579182015b82811115620001d2578251825591602001919060010190620001b5565b5b509050620001e29190620001e6565b5090565b5b8082111562000201576000816000905550600101620001e7565b5090565b6000808291508390505b600185111562000257578086048111156200022f576200022e6200043e565b5b60018516156200023f5780820291505b80810290506200024f856200049c565b94506200020f565b94509492505050565b60006200026d82620003fe565b91506200027a83620003fe565b9250620002a97fffffffffffffffffffffffffffffffffffffffffffffffffffffffffffffffff8484620002b1565b905092915050565b600082620002c3576001905062000396565b81620002d3576000905062000396565b8160018114620002ec5760028114620002f7576200032d565b600191505062000396565b60ff8411156200030c576200030b6200043e565b5b8360020a9150848211156200032657620003256200043e565b5b5062000396565b5060208310610133831016604e8410600b8410161715620003675782820a9050838111156200036157620003606200043e565b5b62000396565b62000376848484600162000205565b9250905081840481111562000390576200038f6200043e565b5b81810290505b9392505050565b6000620003aa82620003fe565b9150620003b783620003fe565b9250817fffffffffffffffffffffffffffffffffffffffffffffffffffffffffffffffff0483118215151615620003f357620003f26200043e565b5b828202905092915050565b6000819050919050565b600060028204905060018216806200042157607f821691505b602082108114156200043857620004376200046d565b5b50919050565b7f4e487b7100000000000000000000000000000000000000000000000000000000600052601160045260246000fd5b7f4e487b7100000000000000000000000000000000000000000000000000000000600052602260045260246000fd5b60008160011c9050919050565b611c1c80620004b96000396000f3fe608060405234801561001057600080fd5b50600436106101215760003560e01c806370a08231116100ad578063a9059cbb11610071578063a9059cbb14610310578063b687e6f814610340578063bed9d86114610370578063dd62ed3e1461037a578063e3d670d7146103aa57610121565b806370a08231146102565780637547c7a3146102865780639168ae72146102a257806395d89b41146102d45780639d3e86cd146102f257610121565b806323b872dd116100f457806323b872dd146101b0578063313ce567146101e0578063372500ab146101fe57806357e871e71461020857806364ab86751461022657610121565b806306fdde0314610126578063095ea7b3146101445780630bbb74f01461017457806318160ddd14610192575b600080fd5b61012e6103da565b60405161013b919061175c565b60405180910390f35b61015e60048036038101906101599190611465565b610468565b60405161016b9190611741565b60405180910390f35b61017c61055a565b6040516101899190611879565b60405180910390f35b61019a610560565b6040516101a79190611879565b60405180910390f35b6101ca60048036038101906101c59190611416565b610566565b6040516101d79190611741565b60405180910390f35b6101e8610937565b6040516101f591906118cb565b60405180910390f35b61020661094a565b005b610210610a14565b60405161021d9190611879565b60405180910390f35b610240600480360381019061023b91906113b1565b610a1c565b60405161024d9190611879565b60405180910390f35b610270600480360381019061026b91906113b1565b610bbb565b60405161027d9190611879565b60405180910390f35b6102a0600480360381019061029b91906114a1565b610bd3565b005b6102bc60048036038101906102b791906113b1565b610e5a565b6040516102cb93929190611894565b60405180910390f35b6102dc610e84565b6040516102e9919061175c565b60405180910390f35b6102fa610f12565b6040516103079190611879565b60405180910390f35b61032a60048036038101906103259190611465565b610f18565b6040516103379190611741565b60405180910390f35b61035a600480360381019061035591906113b1565b611126565b604051610367919061185e565b60405180910390f35b61037861119d565b005b610394600480360381019061038f91906113da565b6112f8565b6040516103a19190611879565b60405180910390f35b6103c460048036038101906103bf91906113b1565b61131d565b6040516103d19190611879565b60405180910390f35b600080546103e790611a9f565b80601f016020809104026020016040519081016040528092919081815260200182805461041390611a9f565b80156104605780601f1061043557610100808354040283529160200191610460565b820191906000526020600020905b81548152906001019060200180831161044357829003601f168201915b505050505081565b600081600560003073ffffffffffffffffffffffffffffffffffffffff1673ffffffffffffffffffffffffffffffffffffffff16815260200190815260200160002060008573ffffffffffffffffffffffffffffffffffffffff1673ffffffffffffffffffffffffffffffffffffffff168152602001908152602001600020819055508273ffffffffffffffffffffffffffffffffffffffff163373ffffffffffffffffffffffffffffffffffffffff167f8c5be1e5ebec7d5bd14f71427d1e84f3dd0314c0f7b2291e5b200ac8c7c3b925846040516105489190611879565b60405180910390a36001905092915050565b60075481565b60035481565b60008073ffffffffffffffffffffffffffffffffffffffff168473ffffffffffffffffffffffffffffffffffffffff1614156105d7576040517f08c379a00000000000000000000000000000000000000000000000000000000081526004016105ce906117fe565b60405180910390fd5b600073ffffffffffffffffffffffffffffffffffffffff168373ffffffffffffffffffffffffffffffffffffffff161415610647576040517f08c379a000000000000000000000000000000000000000000000000000000000815260040161063e9061183e565b60405180910390fd5b600460008573ffffffffffffffffffffffffffffffffffffffff1673ffffffffffffffffffffffffffffffffffffffff168152602001908152602001600020548211156106c9576040517f08c379a00000000000000000000000000000000000000000000000000000000081526004016106c0906117de565b60405180910390fd5b600560008573ffffffffffffffffffffffffffffffffffffffff1673ffffffffffffffffffffffffffffffffffffffff16815260200190815260200160002060008473ffffffffffffffffffffffffffffffffffffffff1673ffffffffffffffffffffffffffffffffffffffff16815260200190815260200160002054821115610788576040517f08c379a000000000000000000000000000000000000000000000000000000000815260040161077f9061177e565b60405180910390fd5b81600460008673ffffffffffffffffffffffffffffffffffffffff1673ffffffffffffffffffffffffffffffffffffffff16815260200190815260200160002060008282546107d791906119e3565b9250508190555081600460008573ffffffffffffffffffffffffffffffffffffffff1673ffffffffffffffffffffffffffffffffffffffff168152602001908152602001600020600082825461082d9190611902565b9250508190555081600560008673ffffffffffffffffffffffffffffffffffffffff1673ffffffffffffffffffffffffffffffffffffffff16815260200190815260200160002060003373ffffffffffffffffffffffffffffffffffffffff1673ffffffffffffffffffffffffffffffffffffffff16815260200190815260200160002060008282546108c091906119e3565b925050819055508273ffffffffffffffffffffffffffffffffffffffff168473ffffffffffffffffffffffffffffffffffffffff167fddf252ad1be2c89b69c2b068fc378daa952ba7f163c4a11628f55a4df523b3ef846040516109249190611879565b60405180910390a3600190509392505050565b600260009054906101000a900460ff1681565b6000600660003373ffffffffffffffffffffffffffffffffffffffff1673ffffffffffffffffffffffffffffffffffffffff1681526020019081526020016000209050600061099833610a1c565b90508082600201546109aa9190611902565b82600201819055506109bc3382610468565b506109c8303383610566565b610a07576040517f08c379a00000000000000000000000000000000000000000000000000000000081526004016109fe9061181e565b60405180910390fd5b4382600101819055505050565b600043905090565b600080600660008473ffffffffffffffffffffffffffffffffffffffff1673ffffffffffffffffffffffffffffffffffffffff168152602001908152602001600020600001541415610a715760009050610bb6565b6000600660008473ffffffffffffffffffffffffffffffffffffffff1673ffffffffffffffffffffffffffffffffffffffff1681526020019081526020016000206001015443610ac191906119e3565b9050600060085482610ad39190611958565b90506000600660008673ffffffffffffffffffffffffffffffffffffffff1673ffffffffffffffffffffffffffffffffffffffff16815260200190815260200160002060000154905060005b82811015610b6157606460075483610b379190611989565b610b419190611958565b82610b4c9190611902565b91508080610b5990611ad1565b915050610b1f565b50600660008673ffffffffffffffffffffffffffffffffffffffff1673ffffffffffffffffffffffffffffffffffffffff1681526020019081526020016000206000015481610bb091906119e3565b93505050505b919050565b60046020528060005260406000206000915090505481565b60008111610c16576040517f08c379a0000000000000000000000000000000000000000000000000000000008152600401610c0d906117be565b60405180910390fd5b610c203082610f18565b610c5f576040517f08c379a0000000000000000000000000000000000000000000000000000000008152600401610c569061181e565b60405180910390fd5b6000600660003373ffffffffffffffffffffffffffffffffffffffff1673ffffffffffffffffffffffffffffffffffffffff168152602001908152602001600020600001541415610cf65743600660003373ffffffffffffffffffffffffffffffffffffffff1673ffffffffffffffffffffffffffffffffffffffff16815260200190815260200160002060010181905550610dfe565b6000610d0133610a1c565b905080600660003373ffffffffffffffffffffffffffffffffffffffff1673ffffffffffffffffffffffffffffffffffffffff1681526020019081526020016000206000016000828254610d559190611902565b9250508190555043600660003373ffffffffffffffffffffffffffffffffffffffff1673ffffffffffffffffffffffffffffffffffffffff1681526020019081526020016000206001018190555080600660003373ffffffffffffffffffffffffffffffffffffffff1673ffffffffffffffffffffffffffffffffffffffff1681526020019081526020016000206002016000828254610df59190611902565b92505081905550505b80600660003373ffffffffffffffffffffffffffffffffffffffff1673ffffffffffffffffffffffffffffffffffffffff1681526020019081526020016000206000016000828254610e509190611902565b9250508190555050565b60066020528060005260406000206000915090508060000154908060010154908060020154905083565b60018054610e9190611a9f565b80601f0160208091040260200160405190810160405280929190818152602001828054610ebd90611a9f565b8015610f0a5780601f10610edf57610100808354040283529160200191610f0a565b820191906000526020600020905b815481529060010190602001808311610eed57829003601f168201915b505050505081565b60085481565b60008073ffffffffffffffffffffffffffffffffffffffff168373ffffffffffffffffffffffffffffffffffffffff161415610f89576040517f08c379a0000000000000000000000000000000000000000000000000000000008152600401610f809061183e565b60405180910390fd5b600460003373ffffffffffffffffffffffffffffffffffffffff1673ffffffffffffffffffffffffffffffffffffffff1681526020019081526020016000205482111561100b576040517f08c379a0000000000000000000000000000000000000000000000000000000008152600401611002906117de565b60405180910390fd5b81600460003373ffffffffffffffffffffffffffffffffffffffff1673ffffffffffffffffffffffffffffffffffffffff168152602001908152602001600020600082825461105a91906119e3565b9250508190555081600460008573ffffffffffffffffffffffffffffffffffffffff1673ffffffffffffffffffffffffffffffffffffffff16815260200190815260200160002060008282546110b09190611902565b925050819055508273ffffffffffffffffffffffffffffffffffffffff163373ffffffffffffffffffffffffffffffffffffffff167fddf252ad1be2c89b69c2b068fc378daa952ba7f163c4a11628f55a4df523b3ef846040516111149190611879565b60405180910390a36001905092915050565b61112e611366565b600660008373ffffffffffffffffffffffffffffffffffffffff1673ffffffffffffffffffffffffffffffffffffffff16815260200190815260200160002060405180606001604052908160008201548152602001600182015481526020016002820154815250509050919050565b6000600660003373ffffffffffffffffffffffffffffffffffffffff1673ffffffffffffffffffffffffffffffffffffffff16815260200190815260200160002060000154905060008111611227576040517f08c379a000000000000000000000000000000000000000000000000000000000815260040161121e9061179e565b60405180910390fd5b600061123233610a1c565b9050600081836112429190611902565b905061124e3382610468565b5061125a303383610566565b611299576040517f08c379a00000000000000000000000000000000000000000000000000000000081526004016112909061181e565b60405180910390fd5b600660003373ffffffffffffffffffffffffffffffffffffffff1673ffffffffffffffffffffffffffffffffffffffff168152602001908152602001600020600080820160009055600182016000905560028201600090555050505050565b6005602052816000526040600020602052806000526040600020600091509150505481565b6000600460008373ffffffffffffffffffffffffffffffffffffffff1673ffffffffffffffffffffffffffffffffffffffff168152602001908152602001600020549050919050565b60405180606001604052806000815260200160008152602001600081525090565b60008135905061139681611bb8565b92915050565b6000813590506113ab81611bcf565b92915050565b6000602082840312156113c357600080fd5b60006113d184828501611387565b91505092915050565b600080604083850312156113ed57600080fd5b60006113fb85828601611387565b925050602061140c85828601611387565b9150509250929050565b60008060006060848603121561142b57600080fd5b600061143986828701611387565b935050602061144a86828701611387565b925050604061145b8682870161139c565b9150509250925092565b6000806040838503121561147857600080fd5b600061148685828601611387565b92505060206114978582860161139c565b9150509250929050565b6000602082840312156114b357600080fd5b60006114c18482850161139c565b91505092915050565b6114d381611a29565b82525050565b60006114e4826118e6565b6114ee81856118f1565b93506114fe818560208601611a6c565b61150781611ba7565b840191505092915050565b600061151f6012836118f1565b91507f416c6c6f77616e636520657863656564656400000000000000000000000000006000830152602082019050919050565b600061155f601c836118f1565b91507f4e6f207374616b656420616d6f756e7420746f207769746864726177000000006000830152602082019050919050565b600061159f601d836118f1565b91507f416d6f756e74206d7573742062652067726561746572207468616e20300000006000830152602082019050919050565b60006115df6014836118f1565b91507f496e73756666696369656e742062616c616e63650000000000000000000000006000830152602082019050919050565b600061161f600e836118f1565b91507f496e76616c69642073656e6465720000000000000000000000000000000000006000830152602082019050919050565b600061165f6015836118f1565b91507f546f6b656e207472616e73666572206661696c656400000000000000000000006000830152602082019050919050565b600061169f6011836118f1565b91507f496e76616c696420726563697069656e740000000000000000000000000000006000830152602082019050919050565b6060820160008201516116e86000850182611714565b5060208201516116fb6020850182611714565b50604082015161170e6040850182611714565b50505050565b61171d81611a55565b82525050565b61172c81611a55565b82525050565b61173b81611a5f565b82525050565b600060208201905061175660008301846114ca565b92915050565b6000602082019050818103600083015261177681846114d9565b905092915050565b6000602082019050818103600083015261179781611512565b9050919050565b600060208201905081810360008301526117b781611552565b9050919050565b600060208201905081810360008301526117d781611592565b9050919050565b600060208201905081810360008301526117f7816115d2565b9050919050565b6000602082019050818103600083015261181781611612565b9050919050565b6000602082019050818103600083015261183781611652565b9050919050565b6000602082019050818103600083015261185781611692565b9050919050565b600060608201905061187360008301846116d2565b92915050565b600060208201905061188e6000830184611723565b92915050565b60006060820190506118a96000830186611723565b6118b66020830185611723565b6118c36040830184611723565b949350505050565b60006020820190506118e06000830184611732565b92915050565b600081519050919050565b600082825260208201905092915050565b600061190d82611a55565b915061191883611a55565b9250827fffffffffffffffffffffffffffffffffffffffffffffffffffffffffffffffff0382111561194d5761194c611b1a565b5b828201905092915050565b600061196382611a55565b915061196e83611a55565b92508261197e5761197d611b49565b5b828204905092915050565b600061199482611a55565b915061199f83611a55565b9250817fffffffffffffffffffffffffffffffffffffffffffffffffffffffffffffffff04831182151516156119d8576119d7611b1a565b5b828202905092915050565b60006119ee82611a55565b91506119f983611a55565b925082821015611a0c57611a0b611b1a565b5b828203905092915050565b6000611a2282611a35565b9050919050565b60008115159050919050565b600073ffffffffffffffffffffffffffffffffffffffff82169050919050565b6000819050919050565b600060ff82169050919050565b60005b83811015611a8a578082015181840152602081019050611a6f565b83811115611a99576000848401525b50505050565b60006002820490506001821680611ab757607f821691505b60208210811415611acb57611aca611b78565b5b50919050565b6000611adc82611a55565b91507fffffffffffffffffffffffffffffffffffffffffffffffffffffffffffffffff821415611b0f57611b0e611b1a565b5b600182019050919050565b7f4e487b7100000000000000000000000000000000000000000000000000000000600052601160045260246000fd5b7f4e487b7100000000000000000000000000000000000000000000000000000000600052601260045260246000fd5b7f4e487b7100000000000000000000000000000000000000000000000000000000600052602260045260246000fd5b6000601f19601f8301169050919050565b611bc181611a17565b8114611bcc57600080fd5b50565b611bd881611a55565b8114611be357600080fd5b5056fea2646970667358221220cb001fbf848fa34230589c83df2279b483e77f31e4b14b5f71fd9b388e7f35ef64736f6c63430008000033",
  "linkReferences": {},
  "deployedLinkReferences": {}
}